:020000040800F2
:1000000040050020D5000008F91F000889150008E8
:1000100000000000000000000000000000000000E0
:100020000000000000000000000000003D24000867
:10003000000000000000000051210008592F0008B6
:10004000E7000008E7000008E7000008E7000008F4
:10005000E7000008E7000008E70000082D1100088D
:10006000E7000008E7000008E7000008E7000008D4
:10007000E7000008E7000008E7000008E7000008C4
:10008000D92F0008E700000800000000E700000882
:10009000E7000008E7000008E7000008E7000008A4
:1000A000E7000008E7000008E7000008B135000895
:1000B000E700000800000000E70000080000000062
:1000C0000348854600F01AFC00480047ED4400084C
:1000D000400500200448804704480047FEE7FEE74B
:1000E000FEE7FEE7FEE7FEE75D2F0008C10000081F
:1000F00030B50B46014600202022012409E00D46C0
:10010000D5409D4205D31D469540491B2546954047
:1001100040191546521E002DF1DC30BD70B500248B
:100120002546002801DA01244042002901DA012590
:100130004942FFF7DDFFAC4200D04042002C00D026
:10014000494270BD70B502464A40D50F40004A0092
:10015000ED0740085208002814D0002A12D0C40D20
:10016000D30D41020120C0055202490A520AE41A85
:10017000091812187D34914201D3641C00E0490033
:10018000002C01DA002070BD0023914201D3891AAE
:100190000343400849000028F7D100290AD09142C2
:1001A00002D10121C90705E0914201D2012101E0FC
:1001B0000121C943E005C018401900F0B0F970BD35
:1001C000F0B51FB488B00B990998002448400999EC
:1001D000C00F490049080991C0070B9900904900D8
:1001E00049080B9109990898A64608431CD00B9919
:1001F0000A98084318D0099801244000420D48008D
:10020000410D099824050003000B204309900B9829
:100210000003000B20430B9050181C49401800228B
:1002200001901446104605E0002001460DB0F0BDD7
:10023000032801DA034600E003239C46C11A0AAEF4
:100240000AE05F0008ADED5B4F00F75B7D430027E0
:10025000AA187C41491C5B1E6145F2DD410004ABDC
:100260005A522104120C0A43240C401C0828DFDBDC
:10027000019802900099704601910090059B049AA4
:100280000799069800F099F9D0E700000DFCFFFFF0
:10029000F0B50C465C4085B0E40FE40703944C00D5
:1002A00000266408590094464908024602962243F3
:1002B00021D062460A431ED06200570D4A000E0349
:1002C0002303550D012402462C492405781B1B0BE2
:1002D000360B401823432643614600901C46501AB3
:1002E000B44103D30098401C009002E0921800989B
:1002F0005B41002803DA0020014605B0F0BD002074
:10030000012109050746864611E064461D46141B77
:10031000B54106D36546521BB341744607430C43AF
:10032000A646CD0740084908284392185B41054678
:100330000D43EAD11046184313D060461946504089
:100340007140084306D06046101AB34106D201221C
:10035000002306E000220123DB0702E00122D24352
:100360005310009874460105381C6141029C039D9E
:100370000019694100F014F9BFE70000FD03000017
:10038000C217C10F504010B54018CA07962300216C
:1003900000F0CDF810BD00000EB5C217C10F5040DF
:1003A000CA0740180021054B0293019200910A46AA
:1003B0000B4600F002F903B000BD0000330400005A
:1003C000C20F410040020123400ADB05D207090E9B
:1003D000C0187F2901DA00207047962903DC962394
:1003E000591AC84001E096398840002AF4D04042AA
:1003F0007047000070B5CD0F4A0009030123090BB7
:100400001B0519430B4BED070024520D9A4201DAEC
:10041000002070BD074B34339A4203DC9A1A00F077
:100420006DF802E00449511888402C43F1D0404255
:1004300070BD0000FF030000CDFBFFFFC20FD2071D
:10044000400040080BD0C10D0723DB01C918400252
:100450000905400A1143C2084007114370470020B4
:1004600001467047CB0FDB07490010B5490802462B
:100470000A4307D00A0D07240903E401090B121BE4
:10048000002A01DC002010BDC900440F0C43C1004C
:10049000E018D205801800F042F810BDF0B51FB486
:1004A0000646002082B005464024019100901BE0E2
:1004B000019922460F46304600F020F8049A059B29
:1004C000801A994110D310461946224600F028FAA6
:1004D000361A8F410197224601200021009F00F02B
:1004E0001FFA38184D4100902046641E0028DFDCBA
:1004F000019B00982946324607B0F0BD10B5202A6E
:1005000004DB0846203AD040002110BD0B46D34002
:10051000D0402024A21A91400843194610BD00295A
:1005200004DA401C490001D140084000704770B413
:100530000024050C05D11024000402D1002921D08B
:100540001124050E01D100020834050F01D100016C
:10055000241D850F01D18000A41C002801DB400070
:10056000641C002908D020252E1B0D46F540A14013
:1005700000D001212943084301061B1B000ADB1D93
:1005800002D5002070BC7047DB05181880180029C0
:10059000F8DA401C4900F5D170BC400840007047B3
:1005A00010B5002B08DA0024401C614192185B4111
:1005B0001A4301D14008400010BDF0B51FB482B00D
:1005C00005460C0003D0084603F06EF902E003F084
:1005D0006BF92030024600902146284600F0A0F931
:1005E000049B059A04460F4618431143084314D050
:1005F000184610431BD0009840210A1A1846059946
:10060000FFF77CFF05460E46009A0599049800F016
:1006100087F9084305D0012004E02046394607B099
:10062000F0BD0020C11705430E432C43374300990A
:100630000E986305401A7905E40A00220C43FD0A6E
:100640000A3002D500200146E9E701051019694189
:100650000C9C0D9D00196941FFF7A2FFDFE7000028
:10066000F0B507460846584087B0C00F04904800D0
:100670000E46590040084908BC1A884105D2384640
:1006800031461E4617460B460246580040081043A6
:100690004CD0300D039040055900400D490D059098
:1006A000401A0290402872DA18030121000B090554
:1006B0000843019004980092002805D00199524205
:1006C0000020884100920190029840210A1A019965
:1006D000009800F025F905460C466B4607CB00F064
:1006E0002FF9C0197141039A0E0D0023D7175640F8
:1006F0001A467A40164344D0049A002A2DD0029A12
:10070000012A039A15DC1205C01A9141012636050B
:10071000001C7141D20F059ED207009301920296F0
:100720002A462346FFF749FF07B0F0BD3846314659
:10073000FAE71605224A0F46B218C01AB74101213E
:100740000905001C4F4100187F41114618187941D6
:10075000E20F10436D19644113E0E2076D08154381
:100760006408C2071443039A01261205C01A914176
:100770003605001C7141CE07400830434908C018B7
:1007800051412A462346FFF70BFFCDE7FFE70498C8
:1007900001224000C117121A00238B4104983146F0
:1007A000C417381AA141EEE730B40124E4076340CE
:1007B00030BC55E730B40124E407614030BC4FE75A
:1007C0000000E0FF70B54B005B0803430BD04B000B
:1007D0005C0D002633466542B341D417AD1AA341E0
:1007E00002DB0020014670BD12053018514170BD7A
:1007F000FEB500231A461B1A8A4103DB002001467E
:1008000003B0F0BD4A000D0301212D0B0905520D67
:100810000D43D10702D100186D41521E5110FF3116
:10082000FF310131002704463E46384600970191CA
:100830000246012100200905FFF760FEC31971413E
:10084000F818324684468E464A4161462846611A67
:10085000904104D36046241A954176461F462419D8
:1008600000986D41401C00903428E1DDF9193046B4
:100870007041091BA84103D20022D243134601E074
:100880000022134601980105381C7141FFF788FECC
:10089000B6E700004A0009030123090B1B051943B1
:1008A0000A4B10B5520D9A4202DA0020014610BDE3
:1008B000064B34339A4203DC9A1AFFF71FFE10BD31
:1008C000034BD21800F02CF810BD0000FF0300000D
:1008D000CDFBFFFF10B5002904DB0124E4074042F3
:1008E0008C412146002B04DB1C460123DB075242CE
:1008F000A341994200D1904210BD0000064C012551
:10090000064E05E0E36807CC2B430C3C98471034B7
:10091000B442F7D3FFF7D8FB104600083046000872
:1009200010B5202A04DB0146203A9140002010BD7A
:10093000914020239C1A0346E3401943904010BD88
:1009400010B5202A06DBCB170846203A1041C11704
:100950000B4306E00B461341D0402024A21A9140DD
:100960000843194610BD10B50B460021836200BF35
:100970000C4614432146416110BD002904D0826811
:1009800001231A43826003E0826802231A438260D3
:100990007047000000B587B00121480201F050FC0B
:1009A000134800F02BF801A800F09DF800F036F88D
:1009B000104801F0F9FB08200190002069460872F8
:1009C00003900590069001A9094800F071F80848C5
:1009D00000F033F801210648FFF7CFFF00BF0649BA
:1009E000034800F04CF80028F9D007B000BD000023
:1009F00000240140004000010100000110B5044640
:100A00000548844207D10121401501F029FC00214D
:100A1000601501F025FC10BD002401401CB501212A
:100A2000480401F0DDFB0F200090032069460871A7
:100A30000920C00600F018FD1CBD30B5014600209D
:100A4000002200238C680125ED072C438C6000BF39
:100A50008C68E30FDB07521C0F242403A24201D051
:100A6000002BF5D18C68E40FE407002C01D1086C51
:100A700000E0002030BD0146086C80B2704730B500
:100A8000024600200023012424060C40002C05D03F
:100A9000946801252D06AC43234600E013681C46EC
:100AA0000C40002C01D0012000E0002030BD0000EF
:100AB00010B50022C268084B1A400C7964030B6819
:100AC00023438C682343CC6823430C6923434C693C
:100AD00023431A43C26010BD03D2FFFF8168042282
:100AE0001143816070470021016001718160C16024
:100AF00001614161704710B500212A2001F0A9FF72
:100B000010BD10B501F0D7FD0D2001F051FF0446D6
:100B100000212A2001F09DFF00210E2001F099FF05
:100B200005212A2001F095FF10BD000000B587B017
:100B30000121880301F084FB02F096FDE1204002D0
:100B4000019000200290039004900C20059000205A
:100B5000069001A90B4802F0F9FD1B2168460170BF
:100B6000002141700121817001F048FA01220649FB
:100B7000044802F0CAFD0121024802F069FD07B0F5
:100B800000BD0000003801400501050010B504203B
:100B900000F0E2FC0D49098840180C4908800C4817
:100BA0000088401C0A4908800846008810280BDB92
:100BB0000020088005480088001104490880054984
:100BC000088000200149088010BD00001E000020A0
:100BD0001C0000202000002010B50121C903054899
:100BE00000F0B6FC04480078002801D1FFF7CEFFE2
:100BF00010BD0000000400482600002010B5444845
:100C00000478532C56D004DC462C7DD0522C7CD159
:100C100004E0542C64D0562C77D126E03D4800786F
:100C2000002803D101203B4908701DE03A483BA150
:100C3000C2683F4802F024FE3D4802F0EDFC364811
:100C40003CA102693A4802F01BFE394802F0E4FC7C
:100C500031483DA14269364802F012FE344802F0A4
:100C6000DBFC00202B4908704FE03C480088FF382F
:100C7000C3382949886000220121394802F012FB5B
:100C800001F0FEFB01221146354802F00BFB334810
:100C9000028834A1264802F0F3FD254802F0BCFC8E
:100CA0001D4834A18268224802F0EAFD204802F083
:100CB000B3FC2AE001F0E4FE00220121284802F002
:100CC000F1FA01F0DDFB01221146254802F0EAFAB3
:100CD0002CA1174802F0D4FD154802F09DFC14E049
:100CE0002948028829A1124802F0CAFD104802F0E2
:100CF00093FC2948028829A10D4802F0C1FD0C4847
:100D000002F08AFC01E0FFE700BF00BF10BD000059
:100D1000A00000206800002004010020416E6765EB
:100D20006C5A65726F5F58203D2025640D0A0000E3
:100D3000D2000020416E67656C5A65726F5F592062
:100D40003D2025640D0A0000416E67656C5A65728E
:100D50006F5F5A203D2025640D0A0000200000200E
:100D60000004004042617444617461203D202564A8
:100D70000D0A00004572726F72203D2025640D0A35
:100D8000000000004F4B00004A0000204E5443205A
:100D90003D2025640D0A00004E00002054656D7052
:100DA000203D2025640D0A000649096904221143EB
:100DB000044A1161044908707D21C9004143034A76
:100DC0001180704700E000E0220000202400002095
:100DD0000E4800780E49097888420FD10D480078F6
:100DE000401C0C49087008460078C8280DDD00201A
:100DF0000870064800780849087006E00020054998
:100E000008700348007801490870704743000020CB
:100E100044000020450000203E00002001460F4A0B
:100E20009268FF322D328A4201DC042008E00B4A2E
:100E30009268FF320F328A4201DC012000E0052077
:100E4000052805D11922064B1A70064B1A7004E0CA
:100E50003222034B1A70034B1A70704704010020B2
:100E6000310000203000002010B5002491480078A7
:100E7000002874D190480088142805DD8E48008829
:100E80004B21C900884213DB8C480088142805DDFB
:100E90008A4800884B21C900884209DB88480088BD
:100EA000142818DD864800884B21C900884212DAD0
:100EB00084480078002806D183480088FFF7AEFFF9
:100EC0008049087007E080480088FFF7A7FF7F4946
:100ED0000870FFF77DFF7E480078012840D1002090
:100EE000764908807B480078012814D10020724997
:100EF000088073480088401C7149088008460088B3
:100F00004B21C900884241DD08466D490880002018
:100F10006C4908703AE000206949088066480088FA
:100F2000401C65490880084600884B21C90088425A
:100F30002CDD65480088FFF771FF012803D0614868
:100F40000078012803D100205B4908801EE04B2077
:100F5000C0005949088000205A49087016E07AE01C
:100F60000020554908805649088054480088401C94
:100F700052490880084600884B21C900884205DD97
:100F800008464E49088000204E4908704D480078B8
:100F9000030002F0A0FC06040F242F3A455E012155
:100FA000C9034D4800F0D6FA012189034A4800F0F0
:100FB000D1FA4FE001218903474800F0CBFA012420
:100FC00046480078012804D1C103434800F0C0FA24
:100FD00004E00121C903404800F0BCFA3AE00121D5
:100FE000C9033D4800F0B4FA012189033A4800F0F2
:100FF000B1FA2FE00121C903374800F0A9FA012115
:101000008903354800F0A4FA24E00121C9033248DD
:1010100000F0A0FA012189032F4800F099FA19E0A5
:1010200001242E480078012808D181032A4800F0C5
:101030008FFAE103284800F08DFA09E001218903C5
:10104000254800F087FA0121C903234800F080FAFF
:1010500000E000BF00BF012C26D120480078012805
:1010600010D11F480078401C1D49087008460078C0
:101070001C49097888421CDD00201949087017496D
:10108000087016E016480078401C1549087008469C
:1010900000781549097888420BDD00201049087056
:1010A00001200E49087004E000200C4908700C492A
:1010B000087010BD320000205A0000205C000020A3
:1010C0005E0000203E0000202000002044000020A0
:1010D00093000020940000200008004840000020F9
:1010E0004100002030000020310000200EB5012119
:1010F000084601F0A5F80D21012001F0A1F9012019
:1011000040030090002168460171102141710121C6
:10111000817100F03BF8072168460172002141729D
:101120000121817202A800F069FF0EBD10B50120F7
:10113000400300F01DF8002803D00120400300F018
:1011400001F810BD014948617047000000040140EA
:10115000044805490860002048608860C86003486A
:10116000486170470000940F00040140FFFF6B00CE
:1011700001460020044A52690A40002A01D0012099
:1011800000E00020704700000004014000212049D9
:101190008279002A35D00A46126803689A430B46C2
:1011A0001A600A46526803689A430B465A600279ED
:1011B00051180A6803681A430A60154A926803685E
:1011C0009A43134B9A601A46D26803689A43104BAD
:1011D000DA604279102A0CD11A46926803681A43E1
:1011E0000B4B9A601A46D26803681A43084BDA60C0
:1011F0000DE00749427951180A6803681A430A60EA
:1012000005E0027951180A6803689A430A6070473A
:10121000000401400149C8607047000000200240FE
:1012200030B5044604250B20000400F08FF8054675
:10123000042D17D10C480069022108430A490861AE
:1012400008464461006940210843074908610B20B2
:10125000000400F07BF8054603480069022188433A
:1012600001490861284630BD0020024004200D4994
:10127000C968C907C90F002901D0012010E0094938
:10128000C96810221140002901D0022008E0054958
:10129000C96804221140002901D0032000E0042085
:1012A0007047000000200240034800698021084385
:1012B00001490861704700000020024078B50646E9
:1012C0000C460425002000900B20000400F03EF89E
:1012D0000546042D24D11348006901210843114912
:1012E000086134800B20000400F030F80546042D1E
:1012F00010D1B01C0090200C009908800B20000435
:1013000000F024F8054607480069400840000549F8
:10131000086105E003480069400840000149086190
:10132000284678BD00200240054800698021084019
:10133000002804D0034802494860034848607047C9
:101340000020024023016745AB89EFCD10B503466D
:101350000424FFF78BFF044603E0FFF787FF0446F2
:101360005B1E012C01D1002BF7D1002B00D10524ED
:10137000204610BD1CB50121480400F031FF0121B9
:10138000880400F02DFF0121C80400F029FF03208C
:101390008003009001216846017181710321417130
:1013A00069462F4800F060F8012189032C4800F0BD
:1013B000D1F80121C9032A4800F0CCF81020009090
:1013C0000021684601710121C17103214171694603
:1013D0000920C00600F048F80120400300900021D9
:1013E000684601710221C1710321417169461D489E
:1013F00000F03AF801208003009000216846017156
:101400000221C171032141716946164800F02CF890
:101410000120C00300900121684601710021817103
:101420000321417169460F4800F01EF80121C903EC
:101430000C4800F08FF8012040030090012168461D
:10144000017100218171032141716946044800F056
:101450000BF801214903024800F07CF81CBD000094
:101460000008004800040048F0B50A4600210023A7
:10147000002400BF3DE001258D402B4615681D402E
:101480002C469C4234D11579012D02D01579022DBC
:1014900016D185684F000326BE40B5438560557957
:1014A0004E00B540866835438560858801268E40AC
:1014B000B5438580858896798E40B6B23543858060
:1014C00005684F000326BE40B543056015794E0000
:1014D000B540066835430560C5684F000326BE4029
:1014E000B543C560D5794E00B540C6683543C56083
:1014F000491C1029BFD3F0BDF0B5002300244D07CF
:10150000EE0E1546B5402B46CD10AE0005462035F3
:10151000AD594E07F70E0F26BE40B543CE10B600AC
:1015200007462037BD51CD10AE003D46AD591D4395
:101530002C46CD10AD003E467451F0BD0246002051
:10154000138A0B40002B01D0012000E000207047DF
:10155000018570478161704710B504460722214616
:101560000848FFF700FA0748FFF7B8FA00BF042160
:101570000448FFF784FA0028F9D00248FFF77BFA05
:1015800010BD00000024014000BFFEE710B5FFF7CA
:10159000F1FEFFF7CBFA00F0DDFDFFF7B2FA01F044
:1015A0003BFD00F063FDFFF7F5F901F07DFD01F073
:1015B000CDFF10BD10B500F069F82D480078012866
:1015C00002D0812851D121E02A48007801281CD17D
:1015D00029480078002805D101202749087000F02B
:1015E000DDFB12E024480078012805D102202249C1
:1015F000087000F075FC08E01F480078022804D14C
:1016000000201D49087000F0B5FB2EE01948007855
:10161000012829D11948007800280ED1082118483E
:1016200001F094FE7821164801F03EFF302000F0D2
:10163000F3FE01201149087016E0104800780228D6
:1016400012D100210E4801F081FEA8210C4801F0C2
:101650002BFF3C2000F0E0FE00200A4908700A49F8
:10166000087003200549087000BF00BF10BD0000CE
:10167000150000208D0000208E0000208F0000202B
:10168000002C0140910000209200002010B50024A1
:1016900000BF00203049087010210920C006FFF764
:1016A0004DFF002801D101200443002C29D02B48F4
:1016B0000078002805D129480470002028490880B6
:1016C00048E026480078A04215D125480088401CF3
:1016D00023490880084600884B21C900884239DB2D
:1016E0001E480078802108431B4908704B20C00029
:1016F0001B4908802EE01948047000201849088012
:1017000028E01748008804280ADD154800884B2186
:10171000C900884204DA114800780F49087014E0C3
:101720000F4800884B21C90088420ED10D4800782F
:10173000012803D102200B49087006E0094800780F
:10174000032802D1002007490870002003490870CF
:101750000349088010BD000015000020140000207F
:10176000160000208F00002010B5F74800880028E0
:1017700077D0F5480088002803DDF3480088642806
:1017800015DDF1480088C82805DDEF480088FF21F5
:101790002D3188420BDDEC480088FF2191318842D1
:1017A00013DDE9480088FF21F53188420DDC012076
:1017B000E649087000221146E54801F0B3FC00221A
:1017C0001146E34801F0BDFCC3E20020DF49087088
:1017D000E0480078012813D1DD48406B782804D018
:1017E0000420DB4920310880B3E200221146D848AA
:1017F00001F098FC04220021D54801F0A2FCA8E2E7
:10180000D4480078022813D1D148406B782804D0FE
:101810000920CF49203108809BE201220021CC48D9
:1018200001F080FC00221146C94801F08AFC90E2D8
:10183000C84800780028C7D1C548406B782804D034
:101840000D20C3492031088083E201220021C048D5
:1018500001F068FC04220021BD4801F072FC78E22E
:10186000FFE7BD480078012818D1BC48007801285E
:1018700014D18103BA48FFF761FE01280ED1002080
:10188000B8490880B8480088401CB7490880084615
:101890000088C32857DD0020088054E0B348007852
:1018A000052827D101218903AD48FFF747FE00280D
:1018B0000FD1AF490880AF480088401CAD4908806F
:1018C00008460088AC4988423DDD0020A9490880CF
:1018D00039E00020A7490880A5480088401CA44999
:1018E000088008460088A54988422CDD0020A049D0
:1018F000088028E0012189039948FFF71FFE00288E
:1019000018D196480078012814D19348007800280F
:1019100010D19B49088093480088401C9149088059
:101920000846008894495F3988420CDD00208D49C3
:10193000088008E000208F4908808D4908808A4986
:1019400008808849088084480078012871D1864839
:101950000088002803DD8448008823280FDD8248A2
:101960000088412803DD80480088642807DD7E4820
:101970000088822811DD7C480088A5280DDC012024
:101980007249087000221146714801F0CBFB002219
:1019900011466F4801F0D5FBDBE100206B49087070
:1019A0006C480078012813D16948406B782804D02E
:1019B0000420674920310880CBE1002211466448A9
:1019C00001F0B0FB04220021614801F0BAFBC0E144
:1019D00060480078022813D15D48406B782804D015
:1019E00009205B4920310880B3E1012200215848D9
:1019F00001F098FB00221146554801F0A2FBA8E136
:101A0000544800780028C7D15148406B782804D04A
:101A10000D204F49203108809BE1012200214C48D4
:101A200001F080FB04220021494801F08AFB90E18B
:101A3000FFE74E480078052879D14E4800880028F5
:101A400076D04B480088002872D14A480088192176
:101A50008901884205DD474800884749A039884206
:101A600017DD4448008844498239884205DD4148F1
:101A7000008841495F3988420BDD3E4800883E4975
:101A80004139884213DD3B4800883B491E39884272
:101A90000DDC01202D490870002211462C4801F070
:101AA00041FB002211462A4801F04BFB51E1002086
:101AB0002649087027480078012813D12448406B34
:101AC000782804D0042022492031088041E10022F6
:101AD00011461F4801F026FB042200211C4801F09A
:101AE00030FB36E11B480078022813D11848406BC0
:101AF000782804D0092016492031088029E10122E4
:101B00000021134801F00EFB00221146104801F09D
:101B100018FB1EE10F480078002888D10C48406B64
:101B2000782806D00D200A492031088011E1ADE067
:101B300028E001220021064801F0F4FA04220021E5
:101B4000034801F0FEFA04E1960000202600002080
:101B5000002C01408E000020700000208D0000202D
:101B600000040048280000202A0000208F000020E8
:101B70002E0000202C00002003070000E3030000DB
:101B8000740000207348008800288FD072480088B5
:101B900000288BD16F48008819214901884204DD53
:101BA0006C4800886D49884217DD6A4800886B4997
:101BB0001E31884205DD67480088E121890088429E
:101BC0000BDD6448008865495F31884213DD614858
:101BD00000886249823188420DDC0120604908702A
:101BE000002211465F4801F09DFA002211465D482F
:101BF00001F0A7FAADE00020594908705A48007872
:101C0000012813D15748406B782804D00420554947
:101C1000203108809DE000221146524801F082FAEE
:101C2000042200214F4801F08CFA92E04E480078DF
:101C3000022813D14B48406B782804D00920494929
:101C40002031088085E001220021464801F06AFA2F
:101C500000221146434801F074FA7AE042480078C5
:101C6000002876D13F48406B782804D00D203D49AC
:101C7000203108806DE0012200213A4801F052FA3B
:101C800004220021374801F05CFA62E037480088FE
:101C900019218901884212DD34480088344988427C
:101CA0000DDC01202E490870002211462D4801F05C
:101CB00039FA002211462B4801F043FA49E000208E
:101CC0002749087028480078012813D12548406B1F
:101CD000782804D0042023492031088039E00022EC
:101CE0001146204801F01EFA042200211D4801F08F
:101CF00028FA2EE01C480078022813D11948406BBE
:101D0000782804D0092017492031088021E00122D9
:101D10000021144801F006FA00221146114801F092
:101D200010FA16E010480078002812D10D48406BD8
:101D3000782804D00D200B492031088009E00122C9
:101D40000021084801F0EEF904220021054801F0C5
:101D5000F8F910BD2E0000202C00002043030000E5
:101D600026000020002C01408E00002028000020CA
:101D7000A406000010B500221146074801F0D2F970
:101D800000220421044801F0CDF901220821024873
:101D900001F0C8F910BD00000004004010B5012298
:101DA0000021074801F0BEF900220421044801F097
:101DB000B9F900220821024801F0B4F910BD000071
:101DC0000004004010B500F011FB3C2844D034481A
:101DD0000078012803D03248007802283CD13148ED
:101DE0000078401C2F49087008460078082833DB2B
:101DF0000020087000F0FAFA2B49087008460078B5
:101E0000302803D101202949087006E026480078CF
:101E10000C2802D1022025490870234800780C289C
:101E200009DD22480078012805D11F480078401EAE
:101E30001D4908700CE01C480078302808DA1B485F
:101E40000078022804D118480078401C1649087010
:101E50001548007800F0E0FA00F0C8FA3C281ED0DF
:101E60000F48007805281AD111480078012802D1BE
:101E700000F022F813E00F480078012802D1FFF7A4
:101E80008DFF0CE00B480078022802D100F028F802
:101E900005E008480078002801D1FFF76BFF10BD6E
:101EA0008F00002092000020900000209100002070
:101EB000260000208E00002010B5002211460748A1
:101EC00001F030F900220421044801F02BF900222E
:101ED0000821024801F026F910BD0000000400406E
:101EE00010B500221146074801F01CF90122042117
:101EF000044801F017F900220821024801F012F904
:101F000010BD00000004004011480088401C10492A
:101F1000088008460088642818DB002008800D48E7
:101F20000068FF219131884203DB01200A490870D3
:101F30000CE009480078012808D106480068FF2114
:101F40007D31884202DC00200349087070470000A0
:101F500074000020780000207000002010B5224896
:101F6000007800283AD121480078012819D10020B2
:101F70001F4908801F480088401C1E4908800846E9
:101F800000887D21C90088422DDD00201949088084
:101F900000F0ACFE00F0E2FFFFF7F8FAFFF7D8F828
:101FA00021E01248007800281DD11249088010480D
:101FB0000088401C0E490880084600887D21C90021
:101FC000884210DD00200A49088000F08FFE00F0F2
:101FD000C5FFFFF7DBFAFFF7BBF804E00020054977
:101FE00008800349088010BD8D0000209300002068
:101FF0009A0000209800002070470000002182789D
:10200000002A27D0184A03231B02D21803789B10FA
:102010009B00D15802789207D30EFF229A400B46BC
:102020009343194642789207120E03789B07DB0E02
:102030009A4011430C4A03231B02D21803789B10C9
:102040009B00D1500278D306DB0E01229A40064B4A
:102050001A6007E00278D306DB0E01229A40024B99
:1020600080331A607047000000E100E008B51021DD
:10207000684601700021417001218170FFF7BEFFA9
:1020800008BD1CB50121480400F0AAF8FF208130EA
:102090000090022168460171002181710321417184
:1020A00069460920C006FFF7DFF90222072109204F
:1020B000C006FFF721FA022208210920C006FFF717
:1020C0001BFA1CBD1CB50121880400F089F83120E1
:1020D0000090022168460171002181710321417144
:1020E00069460948FFF7C0F9012200210648FFF7B9
:1020F00003FA012204210448FFF7FEF90122052119
:102100000148FFF7F9F91CBD0004004810B502466C
:1021100000200D4B186880088000034613431846C2
:10212000094B1860094B1B6904242343074C2361A6
:10213000012901D130BF00E020BF044B1B690424FA
:10214000A343024C236110BD0070004000ED00E08D
:102150007047000070B511480668114886420ED0DD
:1021600010490860002048608860C86008614861C4
:1021700000F086F90546002D0DD0284670BD0024DC
:1021800007E0A000054940180068A100054A50502A
:10219000641C072CF5D30020F0E70000007C000849
:1021A00077777700040100200C49496801229203E7
:1021B00091430A4A51601146496882B21143074A65
:1021C00051601146096B92159143044A11631146FF
:1021D000096B020C1143014A116370470010024061
:1021E000002905D0054A52690243044B5A6104E0B4
:1021F000024A52698243014B5A6170470010024003
:10220000002905D0054AD2690243044BDA6104E093
:10221000024AD2698243014BDA61704700100240E2
:10222000002905D0054A12690243044B1A6104E0F3
:10223000024A12698243014B1A6170470010024042
:10224000002905D0054A92690243044B9A6104E0D3
:10225000024A92698243014B9A6170470010024022
:10226000002905D0054AD2680243044BDA6004E035
:10227000024AD2688243014BDA6070470010024084
:10228000FEB504460025002600200190009000279E
:10229000504840680C2108400546002D04D0042D0C
:1022A00005D0082D28D105E04B48206027E04A489A
:1022B000206024E0474840680F2189040840064612
:1022C000444840680121090408400190B00C861C74
:1022D0000198002803D14148704320600BE03D483D
:1022E000C06A0007000F401C00903B480099FDF7B2
:1022F000FFFE7043206002E03748206000BF00BF4F
:1023000034484068F021084005462D093448475DAF
:102310002068F84060602F484068072109020840A3
:1023200005462D0A2E48475D6068F840A0602948A0
:10233000006BFF2101310840884202D02948E0604B
:102340000DE024484068012189030840884203D0F9
:10235000A0684008E06002E0A0688008E0601D48D6
:10236000006B40210840402802D01F48206102E055
:102370000120C00320611748006B1021084010287D
:1023800002D01548606101E0206860611148006B6F
:102390008007800F002802D1A068A06119E00D48D5
:1023A000006B8007800F012802D12068A06110E037
:1023B0000848006B8007800F022802D18003A061CB
:1023C00007E00448006B8007800F032801D1024812
:1023D000A061FEBD0010024000127A0000093D001D
:1023E00000000020809FD500128000000021002204
:1023F00000230848406B81B20648806B82B20548D2
:10240000C06B83B2914203D19A4201D10846704712
:102410000020FCE70004004010B5044621460648B1
:1024200001F042F82146044801F040F821460248F4
:1024300001F03EF810BD00000004004070470000AD
:1024400030B500228B071C0F0F23A3401A460B4BFD
:102450008C10A4001B599343084C8D10AD006351A0
:1024600023468C10A4001B598C07250F0446AC4052
:102470002343024C8D10AD00635130BD0800014074
:1024800010B50848FEF7CCFE0446042C01D0CA2043
:1024900010BD01F0D1F9002801D1CC20F8E70020CF
:1024A000F6E70000007C0008400000E0401E002825
:1024B000FCD1704770B500240121C9020920C00673
:1024C000FFF748F800F0A4FA00251FE001210903F6
:1024D0000920C006FFF73EF80520FFF7E5FF60067C
:1024E000040E0121C9020920C006FFF727F80128C0
:1024F00001D1601CC4B2012109030920C006FFF705
:1025000027F80520FFF7D0FF681CC5B2082DDDDBDA
:1025100000F08EFA204670BD10B50446002C06D09F
:102520000121C9020920C006FFF712F805E00121C8
:10253000C9020920C006FFF70DF80520FFF7B4FF18
:10254000012109030920C006FFF704F80520FFF761
:10255000ABFF012109030920C006FEF7F9FF0121A5
:10256000C9020920C006FEF7F5FF10BD10B5012114
:10257000C9020920C006FEF7EDFF01210903092069
:10258000C006FEF7E7FF0A20FFF78EFF0121C90210
:102590000920C006FEF7DCFF0520FFF785FF0121BB
:1025A00009030920C006FEF7D3FF10BD10B50121B5
:1025B00009030920C006FEF7CBFF0121C90209204B
:1025C000C006FEF7C5FF0520FFF76EFF01210903D6
:1025D0000920C006FEF7BEFF0A20FFF765FF0121B4
:1025E000C9020920C006FEF7B5FF10BD10B50121D4
:1025F000C9020920C006FEF7ADFF00F009FA01216B
:1026000009030920C006FEF7A5FF0520FFF74CFFD0
:102610000121C9020920C006FEF790FF002807D15A
:10262000012109030920C006FEF792FF012408E0FA
:10263000012109030920C006FEF78AFFFFF7B6FF54
:10264000002400F0F5F9204610BD70B5044600F0F6
:10265000EFF9012109030920C006FEF779FF0025E3
:1026600026E080202040002806D00121C902092050
:10267000C006FEF76FFF05E00121C9020920C00670
:10268000FEF766FF0520FFF70FFF01210903092070
:10269000C006FEF75FFF6006040E0520FFF704FF8B
:1026A000012109030920C006FEF752FF681CC5B2CC
:1026B000082DD6DB70BD10B500F099F900F0B8F91F
:1026C000012109030920C006FEF744FF0121C902C8
:1026D0000920C006FEF73EFF10BD0000F0B58FB028
:1026E00000200A9009900890FFF740FF3C20FFF778
:1026F000ACFFFFF77BFF0020FFF7A7FFFFF776FF98
:10270000FFF734FF3D20FFF7A0FFFFF76FFF002624
:1027100008E0FFF7CFFE0DA988550120FFF7FCFE6A
:10272000701CC6B2062EF4DBFFF7C4FE08A988763B
:102730000120FFF7F1FEFFF739FF08A8407D0102F5
:1027400008A8807D014309B2684681852C21415E3D
:102750008910818508A8C07D010208A8007E014378
:1027600009B26846C1852E21415E8910C18508A83D
:10277000407E010208A8807E014309B268460186B6
:102780003021415E891001862C21415E6C48006831
:1027900008186B49086068462E21415E6948006848
:1027A00008186849086068463021415E664800683C
:1027B00008186549086065480088401C634908801E
:1027C0000846008832287DDB084601885C4800689E
:1027D000FDF7A4FC5A4908605C4801885948006824
:1027E000FDF79CFC57490860584801885648006826
:1027F000FDF794FC5449086000205449088054486F
:10280000406900281BD05248C0684D490968081A21
:102810004B4908604E4800694A490968081A494905
:1028200008604B48406948490968081A46490860E9
:1028300008460068012109034018434908604049DF
:10284000096849433F4A126852438818FDF7A4FDBE
:102850000791069001F06AFE0446FDF703FE0A9018
:102860003949096849430846FDF796FD07910690E6
:1028700001F05CFE0446FDF7BDFD334908600846E3
:102880000068FDF77DFD014601900A98FDF75AFCAE
:102890000746FDF7D3FD044601F01AFD00222D4B3B
:1028A00003910290FDF78CFC2B4A2C4B0591049070
:1028B000FDF7EEFC07910690FDF7D4FD099028493D
:1028C000099800E03AE0FDF73DFC089025480078C3
:1028D000012827D11A4824A10268274800F0D0FF18
:1028E000254800F099FE174824A10268224800F00C
:1028F000C7FF214800F090FE134824A102681E483B
:1029000000F0BEFF1C4800F087FE0898FDF796FD1A
:10291000044622460B4621A1174800F0B1FF164895
:1029200000F07AFE00200649086006490860064962
:1029300008600998FDF744FD1C4908600FB0F0BD20
:102940007C00002080000020840000207200002015
:10295000040100200094D1404AD8124DFB210940C7
:102960000000C84268000020416363656C5F582026
:102970003D2025640D0A0000D200002041636365FC
:102980006C5F59203D2025640D0A0000416363659A
:102990006C5F5A203D2025640D0A00004163636589
:1029A0006C203D2025352E32660D0A00780000206F
:1029B00070B50446FFF7DAFD3C20FFF746FEFFF74F
:1029C00015FE2046FFF741FEFFF710FEFFF7CEFD94
:1029D0003D20FFF73AFEFFF709FEFFF76BFD0546C6
:1029E0000020FFF799FDFFF7E1FD284670BD1CB5FB
:1029F00001200003009001216846017100218171CE
:102A00000321417169460920C006FEF72DFD1CBD5A
:102A10001CB50120C0020090002168460171C171FF
:102A20000321417169460920C006FEF71DFD1CBD4A
:102A30001CB50120C00200900121684601710021EF
:102A400081710321417169460920C006FEF70CFD22
:102A50001CBD70B505460C46FFF788FD3C20FFF70E
:102A6000F4FDFFF7C3FD2846FFF7EFFDFFF7BEFDBE
:102A70002046FFF7EAFDFFF7B9FDFFF797FD70BDB0
:102A8000F0B585B0002400250026002002905AE011
:102A9000FFF76CFD3C20FFF7D8FDFFF7A7FD0020F6
:102AA000FFF7D3FDFFF7A2FDFFF760FD3D20FFF725
:102AB000CCFDFFF79BFD002708E0FFF7FBFC03A917
:102AC000C8550120FFF728FD781CC7B2062FF4DB9C
:102AD000FFF7F0FC694688740120FFF71DFDFFF742
:102AE00065FD6846407B01026846807B014309B270
:102AF000684601800021415E89100180C07B01028F
:102B00006846007C014309B2684641800221415E6B
:102B100089104180407C01026846807C014309B2F3
:102B2000684681800421415E891081800021415ED8
:102B30000C190221415E4D190421415E8E19029843
:102B4000401C80B202900298C828A1DB204602995E
:102B5000FDF7E4FA044628460299FDF7DFFA054638
:102B600030460299FDF7DAFA06460F48C46005615F
:102B7000466122460DA1124800F082FE104800F086
:102B80004BFD2A460FA10E4800F07AFE0C4800F0DB
:102B900043FD324610A10A4800F072FE084800F0DA
:102BA0003BFD05B0F0BD000004010020416E6765EB
:102BB0006C5A65726F5F58203D2025640D0A000035
:102BC000D2000020416E67656C5A65726F5F5920B4
:102BD0003D2025640D0A0000416E67656C5A6572E0
:102BE0006F5F5A203D2025640D0A00000CB50020BF
:102BF0000190009011201D4908601D4840681C4943
:102C00004860084640684860084640683F2109041B
:102C1000884317494860084640680521C9040843AD
:102C20001349486008460068012109060843104915
:102C3000086000BF0E4800680121490608400028CE
:102C4000F8D00B4840688008800009494860084671
:102C50004068022108430649486000BF04484068B4
:102C60000C2108400828F9D10CBD000000200240CA
:102C700000100240072802D88200014B995070478B
:102C8000200100201CB501214804FFF7A9FA012109
:102C90008804FFF7A5FA0121C804FFF7A1FA0F483D
:102CA000009003216846017169460920C006FEF7BD
:102CB000DBFB0B4800900321684601716946094817
:102CC000FEF7D2FB07204003009003216846017104
:102CD00069460548FEF7C8FB1CBD0000FF1F000049
:102CE000F7CC0000000400480008004810B5FDF7CC
:102CF00002FF0121C9031B48FEF72CFC01214903F7
:102D00001948FEF727FC00211848FDF736FE002180
:102D100001204002FFF794FA1448FDF76FFE0022ED
:102D20000121134800F0BEFA0021114800F01CFAFE
:102D300000210220FFF764FA00210E4800F014FA87
:102D400000210120C002FFF77BFAFEF7CFF9FFF761
:102D500099FF01210807FFF753FA01210846FFF701
:102D6000D5F910BD000400480008004800240140C7
:102D700000040040002C014010B56B48007800288A
:102D800045D1012149036948FEF7D8FB012832D11A
:102D90006749087067480078012817D1664880683D
:102DA000FF3041306549098888420EDA00206449C5
:102DB000088001205C49087000205E4908700121EC
:102DC000604800F0DFF9FEF7D5FFACE05A488068B4
:102DD000FF300F30594909888842F6DA00205849F7
:102DE00008800120504908700121564800F0CAF9B6
:102DF000FEF7C0FF97E0012149034C48FEF79EFB18
:102E00000028E2D14E490880494908708BE0012131
:102E100049034648FEF792FB002807D046488068E1
:102E2000FF300F304549098888426ADB4248806894
:102E3000FF300F3041490988884203DB01203D49BA
:102E400008700CE03B480078012808D13C48008815
:102E50004B21C900884202DB002036490870354802
:102E6000007801282DD136480088401C344908805C
:102E7000084600884B21C900884254DD0846304985
:102E8000088000202849087000212E4800F07AF9B7
:102E900000202D49087000212A4800F057FAA82187
:102EA000284800F001FB0020284908703C20FFF76B
:102EB000B3FA00202649087026490870FEF7FCFF87
:102EC00031E000201849087000211E4800F05AF92E
:102ED00000201D49087000211A4800F037FAA82187
:102EE000184800F0E1FA0020184908703C20FFF76C
:102EF00093FA00201649087016490870FEF7DCFFA7
:102F000011E00D488068FF302D300C490988884257
:102F100009DB05200D490870A8210A4800F0C4FA11
:102F20001E20FFF779FA10BD8D0000200004004834
:102F300093000020940000200401002020000020C5
:102F400096000020002C01408E0000208F00002001
:102F500091000020920000207047000010B51B482F
:102F6000006801210843194908600846406818496B
:102F70000840164948600846006816490840134949
:102F80000860084600680121890488430F490860E9
:102F9000084640683F21090488430C4948600846B8
:102FA000C06A00090001C8620846006BFF21543165
:102FB0008843064908630846406B40084000486360
:102FC00000208860FFF712FE10BD000000100240D4
:102FD0000CB8FFF8FFFFF6FE10B501210B4800F01A
:102FE00057F9002811D00A480088401C0849088079
:102FF00008460088C82804DB002008800120054915
:1030000008700121014800F0ABF810BD0004004039
:10301000100000201200002000B589B0FFF752F820
:1030200001210220FFF7ECF81E4800F0BDF83B201C
:10303000079013216846018300210184418306A97A
:10304000184800F037FA0121164800F089F860218D
:10305000684681800121C180002101810221018215
:1030600000214182FF21013181820021C1823C2067
:10307000039001A90B4800F01FF901A9094800F0CD
:1030800071F901A9074800F0C3F90122114605486A
:1030900000F008F90121034800F066F8FEF70CFF84
:1030A00009B000BD0004004000B589B0FEF7E9FF9B
:1030B0000121C802FFF7C4F8194800F075F8EF20A5
:1030C000079013216846018300210184418306A9EA
:1030D000134800F0EFF90121114800F041F8602198
:1030E000684681800121C180042101810021018283
:1030F00041828182C182A820039001A9084800F082
:10310000DBF801A9064800F02DF90121044800F080
:103110002BF80021024800F035F809B000BD00008E
:10312000002C014030B5002301248C40A3B2048C54
:103130009C430484048C15468D40ADB22C4304841A
:1031400030BD30B5002304248C40A3B2048C9C43D2
:103150000484048C15468D40ADB22C43048430BDEC
:10316000CA43028270470000002904D0028801236C
:103170001A43028003E00288014B1A400280704724
:10318000FEFF0000002907D04422125A0123DB036E
:103190001A4344231A5205E04422125A53045B0C8A
:1031A000442213527047000010B50446314884424F
:1031B00008D10121C014FFF753F80021E014FFF7F4
:1031C0004FF856E001208007844208D101210846CB
:1031D000FFF726F800210120FFF722F849E02648F2
:1031E000844208D101210220FFF71AF800210220B1
:1031F000FFF716F83DE02148844208D10121102054
:10320000FFF70EF800211020FFF70AF831E01C4804
:10321000844208D101218015FFF702F80021A01592
:10322000FEF7FEFF25E01748844209D1012108047A
:10323000FFF716F8002101200004FFF711F818E04D
:103240001148844209D101214804FFF709F80021FF
:1032500001204004FFF704F80BE00C48844208D139
:1032600001218804FEF7FCFF002101208004FEF705
:10327000F7FF10BD002C014000040040001000408A
:10328000002000400040014000440140004801404F
:1032900002460020138A0B40002B01D0012000E0E1
:1032A00000207047002A03D083890B43838102E00A
:1032B00083898B438381704770B5002400220023EB
:1032C000058C1C4E35400584028C8388048B194D77
:1032D0006F3D2C40B51E2C400D882C43751E2A4096
:1032E0008D892A434D882A43134DA84208D0134D97
:1032F000A84205D0124DA84202D0124DA84212D1C8
:103300000C4DED1F2A40CD892A430A4DED1E2A405F
:103310008D882A43074DFF3D2B400B4D2B400D8AD6
:103320002B434D8A2B43838004838D68456302843D
:1033300070BD0000FEFF0000002C01400040014075
:103340000044014000480140FFFD00000A46002102
:10335000018C034B19400B461343194601847047F7
:10336000F7FF000070B5002400220023058C214ED9
:1033700035400584028C8388048B1F4D2C401F4DE3
:103380002C400D782D062D0C2C431A4D103D2A4053
:103390008D892D052D0C2A434D882D052D0C2A4392
:1033A000174DA84202D0174DA8421CD1164D2B40F4
:1033B0000D8AAD042D0C2B43114DA84213D10D4D98
:1033C000703D2A40CD892D052D0C2A43094D303DF5
:1033D0002A408D882D052D0C2A430C4D2B404D8AFB
:1033E000AD042D0C2B43838004838D688563028498
:1033F00070BD0000EFFF0000FF8F0000FFFC000029
:10340000002C014000400140FFFB0000FFF70000DE
:1034100070B5002400220023058C1C4E3540058425
:10342000028C8388848B194D90352C40174DFD35C7
:103430002C400D882C43164D2A400D7B2D062D0C5B
:103440002A438D782D062D0C2A43124DA84217D100
:10345000114D2A408D7B2D062D0C2A430F4D2A40FD
:103460000D792D062D0C2A430D4D2B400D4D2B4073
:103470000D8A2D052D0C2B434D8A2D052D0C2B432C
:10348000838084838D68C563028470BDFFFE000065
:10349000FFFD0000002C0140FFF70000FFFB0000D3
:1034A000FFEF0000FFDF000041637047816370475A
:1034B000C163704700220288154B984206D0012351
:1034C0009B07984202D0134B984203D1124B1A40EB
:1034D0004B881A43114B984203D0114B1A400B8969
:1034E0001A4302804B68C3620B880385084B9842DD
:1034F00008D00C4B984205D00B4B984202D00B4B96
:10350000984201D18B7A03860123838270470000A1
:10351000002C0140000400408FFF0000001000401C
:10352000FFFC000000400140004401400048014011
:1035300010B5002404E0A100034A50588047641CE1
:10354000072CF8D910BD00002001002000B510495B
:103550000020FFF78FFB0F490120FFF78BFB0E497F
:103560000220FFF787FB0D490320FFF783FB0C497F
:103570000420FFF77FFB0B490520FFF77BFB0A497F
:103580000620FFF777FB09490720FFF773FB00BD13
:10359000C51D0008792D0008D90B0008B5150008D5
:1035A000091F000869170008690E00085D1F000860
:1035B00010B51449144800F081F8002821D01248B1
:1035C00000F030F9C4B20A2C0FD10A210F4802884A
:1035D0000088401C0D4B18800D48815401200D4976
:1035E00008700020194608800BE00A48007800287F
:1035F00007D1064801880088401C044A108004480E
:10360000445410BD05010500003801406A00002047
:10361000A00000206C00002010B5044612E000BF9E
:1036200080210A4800F040F80028F9D021780748A6
:1036300000F0FDF800BF4021044800F035F80028F4
:10364000F9D1641C20780028E9D110BD0038014070
:10365000002904D0026801231A43026003E00268D3
:1036600052085200026070471CB501214804FEF761
:10367000B7FD01220921C806FDF73EFF01220A21FC
:103680000920C006FDF738FF032040020090022108
:103690006846017100218171032141716946092049
:1036A000C006FDF7E1FE1CBD02460020D3690B40B9
:1036B000002B01D0012000E00020704770B50246C9
:1036C0000B4600240021002500201E04350ED9B22F
:1036D00001268E403146012D02D11668314006E0A8
:1036E000022D02D15668314001E0966831401C0C31
:1036F0000126A6403446D6693440002903D0002C68
:1037000001D0012000E0002070BDF8B50346002480
:10371000002600960025002018460E04340ECEB276
:1037200000960127009EB7403D46022C01D1001DA6
:1037300002E0032C00D10830002A03D006682E4393
:10374000066002E00668AE430660F8BDF0B589B0D9
:1037500004460D46002700200890002620684008F7
:10376000400020606668032109033046884306460E
:10377000A86806436660266827480640E9686868C6
:1037800008432969084306432660A6680321090205
:1037900030468843064668690643A66001A8FEF7DE
:1037A0006FFD1E48844202D10798089001E00398FB
:1037B000089020680121C903084000280CD029681E
:1037C000089A5000FCF794FC07462968089A5000B4
:1037D000FCF78EFC0E4609E029680898FCF788FC87
:1037E000074629680898FCF783FC0E4628684008BD
:1037F000B04200D87F1C20680121C903084000287E
:1038000006D03807460F384605490840304307467A
:10381000A78109B0F0BD0000F3E9FFFF00380140C7
:10382000F0FF00000146888CC005C00D7047CA0536
:10383000D20D02857047000010B5FDF775FD3420EC
:10384000FDF7E8FC0C48FDF7EBFC042801D0002054
:1038500010BD002409E0A200084B9958A200064BB5
:10386000D018FDF72BFD601CC4B2072CF3DBFDF76D
:103870001BFD0120ECE70000007C00080401002093
:103880000FB410B504A9074B02AA039800F07EF903
:10389000044602A9002000F015FD204610BC08BC1B
:1038A00004B01847C54200082021020C01D01021A5
:1038B0001046020A01D010460839020901D010460C
:1038C000091F820801D01046891E420801D0881EB7
:1038D0007047081A704730B47446641E2578641C1B
:1038E000AB4204D3635D5B00E31830BC18471D4650
:1038F000F8E700004900CA020243100000D004208B
:103900004A0D01D001221043044A490D914201D1D0
:1039100002210843012800D105207047FF0700005D
:10392000F8B504464F1EC8000838211815461E4633
:10393000086849683A4606239A4310D02A46334617
:10394000FCF73EFC3A46D200083AA3181A687F1EDC
:103950005B68FCF785FE06223B469343EED1022FBF
:1039600023D0042F11D0062F2FD12A463346FCF73F
:1039700027FCE36AA26AFCF773FE2A463346FCF78B
:103980001FFC636A226AFCF76BFE2A463346FCF78B
:1039900017FCE369A269FCF763FE2A463346FCF78D
:1039A0000FFC63692269FCF75BFE2A463346FCF78D
:1039B00007FCE368A268FCF753FE2A463346FCF78F
:1039C000FFFB63682268FCF74BFEF8BD10B50122CF
:1039D000FCF7F8FE10BD0000034A10B500201107E7
:1039E000FCF7F0FE10BD000001FDFFFF02E008C87B
:1039F000121F08C1002AFAD170477047002001E069
:103A000001C1121F002AFBD1704700000149086064
:103A1000704700009C000020F0B51FB486B00998E4
:103A2000089A030D0021024314D05148514A181836
:103A3000504305141198012810981AD0281A401CD8
:103A400000264D4F4D49009601910490002812DA4E
:103A5000444211E01198012449A3012801D1109892
:103A6000C1430698119A84600360C26041600BB044
:103A7000F0BD4042E4E70446210500203F4A001C17
:103A800051410391029012E0E00707D032463B46D5
:103A900001990098FCF794FB0191009032463B4657
:103AA00010461946FCF78CFB06460F466410002CA6
:103AB000EAD10498039B0028029A0999089806DA2B
:103AC000FCF77EFB019B009AFCF77AFB05E0FCF714
:103AD000DFFB019B009AFCF7DBFB04460E4600224D
:103AE000284BFCF7F7FE03D80020C043014607E04F
:103AF0000022254B20463146FCF7B2FDFCF7CAFEFA
:103B0000102409E0002C0ADB0A220023FCF7C6FC83
:103B1000079B30321A55641E02460A43F2D1112225
:103B2000641C079B121B1C19119B012B03D0012342
:103B300008430ED10AE0084304D011201090002061
:103B4000119077E71098151A6D1E0BE010988242BD
:103B500002DD00236D1C03E0824201DA00236D1EAA
:103B6000002BEED0069811998260C16030C07EE7CC
:103B700001FCFFFF104D0000000014400000F03F6A
:103B8000300000000000F0430000E03FFFB597B0B8
:103B90000646002518E2252877D100242746FD494E
:103BA000049400E00443761C32780120203A9040CF
:103BB0000842F7D130782A280ED002223078014608
:103BC0003039092916D804990A2359433039401845
:103BD0001443761C0490F1E7189802C804911890D9
:103BE000002904DA012040030443484204900220E3
:103BF0000443761C30782E2814D1042004437078B6
:103C0000761C2A2809D11898761C80C8189009E0DB
:103C10000A214F43303FC719761C307801463039AE
:103C20000929F5D930786C2810D006DC4C281AD038
:103C300068280ED06A2817D104E0742813D07A2897
:103C400012D110E00120400504430CE001210905D8
:103C500001E0032109050C437178814203D1012061
:103C600000052418761C761C3078119066280BD03D
:103C700013DC58287DD009DC00287BD04528F6D0FD
:103C80004628F4D047281AD1A5E118E0632835D09A
:103C9000642870D0652812D19DE170286CD008DCB2
:103CA0006728F1D069287BD06E280DD06F2806D107
:103CB000BAE073282ED0752871D0782859D01A9A76
:103CC000199990476D1C7EE16002400F022809D0CF
:103CD00003280DD00428189801680DD00D60001D30
:103CE000189070E11898EA1701680D604A60F6E7CD
:103CF000189801680D80F2E70D70F0E718986A4691
:103D000001781172001D18900020507202A80090D6
:103D1000012005E0189802C8189000200091C043C7
:103D200061070DD5002101E00199491C0191B942BB
:103D300012DA8142F8DB009A515C0029F4D10BE0E1
:103D4000002101E00199491C01918142FADB019AAD
:103D50000099895C0029F5D1019904981A9B471AAA
:103D600021463846199A00F097FA019940194518EA
:103D70000BE04FE02CE113E04EE000980099007852
:103D8000491C00911A9A199990470198401E019078
:103D9000401CF2D1214638461A9B199A10E137E0AF
:103DA0000A200021009001916002410F022907D0F2
:103DB000189A01CA1892C2179446032908D00AE03B
:103DC0001898C01DC108C90005C91891944607E09C
:103DD00000B2C2179446042902D140B2C1178C46E2
:103DE00000226146944506DA0A460021404291418C
:103DF0008C462D2102E0210504D52B216A46117342
:103E0000012103E0E10701D02021F7E7029155E00D
:103E10000A200AE0102008E0102000900021042071
:103E200004430191082703E008200021019100903C
:103E30006002410F022907D0189A01CA1892002285
:103E40009446032908D008E01898C01DC108C9008D
:103E500005C91891944603E080B2042900D1C0B28C
:103E600000210291210729D51199702906D0009AC5
:103E70001021019B4A401A4305D00EE040216A46BA
:103E80001173012108E06146014306D030216A46E2
:103E900011731199517302210291009A0821019B1B
:103EA0004A401A430AD16146014301D1610705D551
:103EB00030216A46117301217F1E02911199582900
:103EC00004D035A10E910DA90D910DE037A1F9E7B0
:103ED0006146019B009AFCF7E1FA0E9B8C469B5CC5
:103EE0000D9A521E0D92137061460143F0D10D9848
:103EF00005A9081A20300190600703D501200004AD
:103F0000844300E001270198874201DD381A00E070
:103F10000020019900904118029809180498401A4D
:103F20000490E00306D421461A9B199A049800F0E5
:103F3000B3F94519002706E003A81A9AC05D19993C
:103F400090476D1C7F1C02988742F5DBE0030CD57F
:103F500021461A9B199A049800F09EF9451904E02D
:103F60001A9A3020199990476D1C0099481E0090AC
:103F70000029F5DC08E00D980D990078491C0D9199
:103F80001A9A199990476D1C0199481E01900029B1
:103F9000F1DC63E109280100303132333435363742
:103FA0003839616263646566000000003031323385
:103FB0003435363738394142434445460000000025
:103FC00000F05AF94519761C3078002800D0E2E557
:103FD00028461BB0F0BD600700D406271898C01D06
:103FE000C108C90048680A680831C30FDB07189187
:103FF000190001D09CA108E0210501D59BA104E096
:10400000E10701D09AA100E09AA1430011985B0852
:10401000109165280CD006DC452809D046281DD013
:10402000472841D141E0662818D067283CD13CE0C0
:104030000021112F01DB112000E0781C019100907C
:1040400008A911A8FFF7E8FC139905910021119A1E
:1040500015927F1C12980197009150E00120C00733
:1040600003900120019008A9009711A8FFF7D4FC44
:10407000139A149905920022119B0092129815939D
:10408000059A0192002901D0104602E0791C4018DF
:104090000190381A01D5019804E04042401E00907A
:1040A000781C0190C01B029043E0012F00DA012729
:1040B0000021112F01DD112000E038460191009010
:1040C00008A911A8FFF7A8FC13990591119A0021DE
:1040D000129815920091019721070CD40599B942C5
:1040E00001DB019900E00191012904DD159A491EC7
:1040F000515C302906D0B84201DA011D05DA0121F0
:10410000029115E00199491EEDE7002805DC0099B0
:10411000411800910199091A03E0019A411C91424A
:1041200000DD01910099401A401C02900120C00757
:104130000390200706D402990198814202DB0020F7
:10414000C043029000206946C87707AF0121039859
:104150000337C907884224D0022011902B201290E7
:10416000039800280CDA404203902D20129007E0BB
:104170000A210398FBF7BCFF30317F1E0390397092
:104180001199481E11900029F2DC03980028EFD104
:10419000791E129808703078202108404530BF1EE3
:1041A000387006A8C01BC01D039010980078002826
:1041B00000D00120019941180298C01709180398EE
:1041C00009180498401A401E0490E00306D42146C2
:1041D0001A9B199A049800F05FF845191098007816
:1041E000002803D01A9A199990476D1CE00324D532
:1041F00021461A9B199A049800F04EF845191CE0C4
:104200000098002807DB00990598884203DD15987F
:10421000405C199901E0199930201A9A904700984A
:104220006D1C401C00900298401E0290002804D192
:104230001A9A2E20199990476D1C0199481E0190D9
:104240000029DDDC05E038781A9A7F1C199990471F
:104250006D1C0399481E03900029F4DC21461A9B2B
:10426000199A0498ACE600002D0000002B00000015
:104270002000000000000000F8B5044600251E469E
:104280001746880404D405E039462020B0476D1C49
:10429000641EF9D52846F8BDFFB50446002581B057
:1042A0001E46C80301D5302700E02027880404D526
:1042B00005E038460399B0476D1C641EF9D52846C1
:1042C00005B0F0BD0A68531C0B6010707047000009
:1042D000F0B589B004460D46480006917249400881
:1042E000884215DB7149884203DC884207D1002CE3
:1042F00005D020462946FFF769FB09B0F0BD6C48A0
:10430000002D02DD6B4909B0F0BD6B4909B0F0BD6D
:104310006A49884211DA6A4988420BDA20462946FE
:10432000FFF7E8FA042801D1FFF756FB204629469B
:1043300009B0F0BD0026F6435DE06D0061496D08EF
:10434000884232DA6049884219DA0026012332466F
:104350009B0720462946FCF783F907460191012275
:1043600020462946FCF72EFA0022584BFCF71CFA8F
:104370003A46019BFBF78CFF04460D463BE00126C5
:104380000022524B20462946FCF76AF90746009165
:1043900000224E4B20462946FCF706FA3A46009B7F
:1043A000FBF776FF04460D4625E04949884219DAB5
:1043B00002260022474B20462946FBF701FF002238
:1043C000424BFCF74DF9074602910022414B204633
:1043D0002946FCF7E9F93A46029BFBF759FF0446E8
:1043E0000D4608E0032622462B4600203A49FBF7FB
:1043F0004FFF04460D4622462B4610461946FBF752
:10440000DFFE07460B4602460191FBF7D9FE024646
:10441000029032480B46039106217844FFF780FA58
:104420003A46019BFBF7CCFE00902D4801910521F7
:104430007844039B029AFFF773FA039B029AFBF7F7
:10444000BFFE02460B4601990098002E0BDAFCF7DE
:1044500007F922462B46FBF7B3FE22462B46FCF714
:10446000A9F909B0F0BDFCF7FBF822462B46FBF793
:10447000A7FE1C4AF6007A4493191A685B68FCF799
:1044800093F922462B46FCF78FF9174A7A44931981
:104490001A685B68FCF78EF9069A002AE1DA0122B5
:1044A000D207514009B0F0BD000010440000F07F79
:1044B000182D4454FB21F93FFB21F9BF0000DC3FDC
:1044C0000000203E0000F33F0000E63F0000F03F08
:1044D000008003400000F83F0000F0BFC201000070
:1044E000840100001E010000E80000003020FCF7FD
:1044F0005BFCFDF74BF813E00A480078012804D173
:10450000FCF77CFB002007490870FEF7E7F8064837
:104510000078012804D1002003490870FFF708F84B
:10452000EAE700006C00002012000020F8B5064603
:104530000C46FCF75DF9051E0F4600D00120014333
:1045400049000B484908411AC90F0DD0002E01D06F
:10455000012100E000210C4361004908401AC00F0E
:1045600002D10120FFF752FA28463946F8BD000073
:104570000000F07F000000004FBB610567ACDD3F2D
:10458000182D4454FB21E93F9BF681D20B73EF3F7A
:10459000182D4454FB21F93FE2652F227F2B7A3CF2
:1045A000075C143326A6813CBDCBF07A8807703CAB
:1045B000075C143326A6913CC4EB98999999C9BF1E
:1045C000711623FEC671BCBF6D9A74AFF2B0B3BF53
:1045D0009AFDDE522DDEADBF2F6C6A2C44B4A2BF13
:1045E0000D5555555555D53FFF8300922449C23F7F
:1045F0006E204CC5CD45B73F513DD0A0660DB13FB3
:10460000EB0D76244B7BA93F11DA22E33AAD903FC4
:104610003046000800000020A0000000EC3900082F
:10462000D0460008A0000020A0040000FC390008CB
:104630000000000001020304010203040607080948
:10464000000000000000000000000000000000006A
:10465000000000000000000000000000000000005A
:10466000000000000000000000000000000000004A
:10467000000000000000000000000000000000003A
:10468000000000000000000000000000000000002A
:10469000000000000000000000000000000000001A
:1046A000000000000000000000000000000000000A
:1046B00000000000000000000000000000000000FA
:1046C00000000000000000000000000000000000EA
:04000005080000C12E
:00000001FF
